{
  "_format": "hh-sol-artifact-1",
  "contractName": "DAO",
  "sourceName": "contracts/DAO.sol",
  "abi": [
    {
      "inputs": [
        {
          "internalType": "uint256",
          "name": "_quorum",
          "type": "uint256"
        }
      ],
      "stateMutability": "nonpayable",
      "type": "constructor"
    },
    {
      "anonymous": false,
      "inputs": [
        {
          "indexed": true,
          "internalType": "uint256",
          "name": "id",
          "type": "uint256"
        },
        {
          "indexed": false,
          "internalType": "string",
          "name": "description",
          "type": "string"
        },
        {
          "indexed": false,
          "internalType": "uint256",
          "name": "deadline",
          "type": "uint256"
        }
      ],
      "name": "ProposalCreated",
      "type": "event"
    },
    {
      "anonymous": false,
      "inputs": [
        {
          "indexed": true,
          "internalType": "uint256",
          "name": "id",
          "type": "uint256"
        }
      ],
      "name": "ProposalExecuted",
      "type": "event"
    },
    {
      "anonymous": false,
      "inputs": [
        {
          "indexed": true,
          "internalType": "uint256",
          "name": "id",
          "type": "uint256"
        },
        {
          "indexed": false,
          "internalType": "address",
          "name": "voter",
          "type": "address"
        },
        {
          "indexed": false,
          "internalType": "bool",
          "name": "support",
          "type": "bool"
        }
      ],
      "name": "VoteCast",
      "type": "event"
    },
    {
      "inputs": [],
      "name": "VOTING_DURATION",
      "outputs": [
        {
          "internalType": "uint256",
          "name": "",
          "type": "uint256"
        }
      ],
      "stateMutability": "view",
      "type": "function"
    },
    {
      "inputs": [
        {
          "internalType": "address",
          "name": "_member",
          "type": "address"
        }
      ],
      "name": "addMember",
      "outputs": [],
      "stateMutability": "nonpayable",
      "type": "function"
    },
    {
      "inputs": [
        {
          "internalType": "string",
          "name": "_description",
          "type": "string"
        },
        {
          "internalType": "enum DAO.ProposalType",
          "name": "_type",
          "type": "uint8"
        }
      ],
      "name": "createProposal",
      "outputs": [],
      "stateMutability": "nonpayable",
      "type": "function"
    },
    {
      "inputs": [
        {
          "internalType": "uint256",
          "name": "id",
          "type": "uint256"
        }
      ],
      "name": "execute",
      "outputs": [],
      "stateMutability": "nonpayable",
      "type": "function"
    },
    {
      "inputs": [
        {
          "internalType": "uint256",
          "name": "id",
          "type": "uint256"
        }
      ],
      "name": "getProposal",
      "outputs": [
        {
          "internalType": "string",
          "name": "",
          "type": "string"
        },
        {
          "internalType": "enum DAO.ProposalType",
          "name": "",
          "type": "uint8"
        },
        {
          "internalType": "uint256",
          "name": "",
          "type": "uint256"
        },
        {
          "internalType": "uint256",
          "name": "",
          "type": "uint256"
        },
        {
          "internalType": "bool",
          "name": "",
          "type": "bool"
        },
        {
          "internalType": "uint256",
          "name": "",
          "type": "uint256"
        },
        {
          "internalType": "uint256",
          "name": "",
          "type": "uint256"
        }
      ],
      "stateMutability": "view",
      "type": "function"
    },
    {
      "inputs": [],
      "name": "getProposalCount",
      "outputs": [
        {
          "internalType": "uint256",
          "name": "",
          "type": "uint256"
        }
      ],
      "stateMutability": "view",
      "type": "function"
    },
    {
      "inputs": [
        {
          "internalType": "uint256",
          "name": "",
          "type": "uint256"
        },
        {
          "internalType": "address",
          "name": "",
          "type": "address"
        }
      ],
      "name": "hasVoted",
      "outputs": [
        {
          "internalType": "bool",
          "name": "",
          "type": "bool"
        }
      ],
      "stateMutability": "view",
      "type": "function"
    },
    {
      "inputs": [
        {
          "internalType": "address",
          "name": "_addr",
          "type": "address"
        }
      ],
      "name": "isMember",
      "outputs": [
        {
          "internalType": "bool",
          "name": "",
          "type": "bool"
        }
      ],
      "stateMutability": "view",
      "type": "function"
    },
    {
      "inputs": [],
      "name": "memberCount",
      "outputs": [
        {
          "internalType": "uint256",
          "name": "",
          "type": "uint256"
        }
      ],
      "stateMutability": "view",
      "type": "function"
    },
    {
      "inputs": [
        {
          "internalType": "address",
          "name": "",
          "type": "address"
        }
      ],
      "name": "members",
      "outputs": [
        {
          "internalType": "bool",
          "name": "",
          "type": "bool"
        }
      ],
      "stateMutability": "view",
      "type": "function"
    },
    {
      "inputs": [],
      "name": "owner",
      "outputs": [
        {
          "internalType": "address",
          "name": "",
          "type": "address"
        }
      ],
      "stateMutability": "view",
      "type": "function"
    },
    {
      "inputs": [],
      "name": "quorum",
      "outputs": [
        {
          "internalType": "uint256",
          "name": "",
          "type": "uint256"
        }
      ],
      "stateMutability": "view",
      "type": "function"
    },
    {
      "inputs": [
        {
          "internalType": "uint256",
          "name": "id",
          "type": "uint256"
        },
        {
          "internalType": "bool",
          "name": "support",
          "type": "bool"
        }
      ],
      "name": "vote",
      "outputs": [],
      "stateMutability": "nonpayable",
      "type": "function"
    }
  ],
  "bytecode": "0x608060405234801561001057600080fd5b50604051611bb9380380611bb983398181016040528101906100329190610119565b336000806101000a81548173ffffffffffffffffffffffffffffffffffffffff021916908373ffffffffffffffffffffffffffffffffffffffff16021790555060018060003373ffffffffffffffffffffffffffffffffffffffff1673ffffffffffffffffffffffffffffffffffffffff16815260200190815260200160002060006101000a81548160ff02191690831515021790555060016002819055508060058190555050610146565b600080fd5b6000819050919050565b6100f6816100e3565b811461010157600080fd5b50565b600081519050610113816100ed565b92915050565b60006020828403121561012f5761012e6100de565b5b600061013d84828501610104565b91505092915050565b611a64806101556000396000f3fe608060405234801561001057600080fd5b50600436106100cf5760003560e01c8063a438d2081161008c578063c9d27afe11610066578063c9d27afe14610230578063ca6d56dc1461024c578063d1c29a2914610268578063fe0d94c114610284576100cf565b8063a438d208146101be578063c08cc02d146101dc578063c7f758a8146101fa576100cf565b806308ae4b0c146100d457806311aee380146101045780631703a0181461012257806343859632146101405780638da5cb5b14610170578063a230c5241461018e575b600080fd5b6100ee60048036038101906100e99190610d83565b6102a0565b6040516100fb9190610dcb565b60405180910390f35b61010c6102c0565b6040516101199190610dff565b60405180910390f35b61012a6102c6565b6040516101379190610dff565b60405180910390f35b61015a60048036038101906101559190610e46565b6102cc565b6040516101679190610dcb565b60405180910390f35b6101786102fb565b6040516101859190610e95565b60405180910390f35b6101a860048036038101906101a39190610d83565b61031f565b6040516101b59190610dcb565b60405180910390f35b6101c6610375565b6040516101d39190610dff565b60405180910390f35b6101e461037c565b6040516101f19190610dff565b60405180910390f35b610214600480360381019061020f9190610eb0565b610389565b6040516102279796959493929190610fe4565b60405180910390f35b61024a60048036038101906102459190611086565b6104e5565b005b61026660048036038101906102619190610d83565b6107ac565b005b610282600480360381019061027d9190611150565b610939565b005b61029e60048036038101906102999190610eb0565b610b7c565b005b60016020528060005260406000206000915054906101000a900460ff1681565b60025481565b60055481565b60046020528160005260406000206020528060005260406000206000915091509054906101000a900460ff1681565b60008054906101000a900473ffffffffffffffffffffffffffffffffffffffff1681565b6000600160008373ffffffffffffffffffffffffffffffffffffffff1673ffffffffffffffffffffffffffffffffffffffff16815260200190815260200160002060009054906101000a900460ff169050919050565b6201518081565b6000600380549050905090565b60606000806000806000808760038054905081106103dc576040517f08c379a00000000000000000000000000000000000000000000000000000000081526004016103d3906111fc565b60405180910390fd5b600060038a815481106103f2576103f161121c565b5b90600052602060002090600702019050806000018160010160009054906101000a900460ff16826002015483600301548460040160009054906101000a900460ff168560050154866006015486805461044a9061127a565b80601f01602080910402602001604051908101604052809291908181526020018280546104769061127a565b80156104c35780601f10610498576101008083540402835291602001916104c3565b820191906000526020600020905b8154815290600101906020018083116104a657829003601f168201915b5050505050965098509850985098509850985098505050919395979092949650565b600160003373ffffffffffffffffffffffffffffffffffffffff1673ffffffffffffffffffffffffffffffffffffffff16815260200190815260200160002060009054906101000a900460ff16610571576040517f08c379a0000000000000000000000000000000000000000000000000000000008152600401610568906112f7565b60405180910390fd5b8160038054905081106105b9576040517f08c379a00000000000000000000000000000000000000000000000000000000081526004016105b0906111fc565b60405180910390fd5b6000600384815481106105cf576105ce61121c565b5b9060005260206000209060070201905080600601544210610625576040517f08c379a000000000000000000000000000000000000000000000000000000000815260040161061c90611363565b60405180910390fd5b6004600085815260200190815260200160002060003373ffffffffffffffffffffffffffffffffffffffff1673ffffffffffffffffffffffffffffffffffffffff16815260200190815260200160002060009054906101000a900460ff16156106c3576040517f08c379a00000000000000000000000000000000000000000000000000000000081526004016106ba906113cf565b60405180910390fd5b60016004600086815260200190815260200160002060003373ffffffffffffffffffffffffffffffffffffffff1673ffffffffffffffffffffffffffffffffffffffff16815260200190815260200160002060006101000a81548160ff0219169083151502179055508215610751578060020160008154809291906107479061141e565b919050555061076c565b8060030160008154809291906107669061141e565b91905055505b837fe71fcdac32df1877c1700e7bda2a03157e20993363a28fc35ac495cefc76e4d4338560405161079e929190611466565b60405180910390a250505050565b60008054906101000a900473ffffffffffffffffffffffffffffffffffffffff1673ffffffffffffffffffffffffffffffffffffffff163373ffffffffffffffffffffffffffffffffffffffff161461083a576040517f08c379a0000000000000000000000000000000000000000000000000000000008152600401610831906114db565b60405180910390fd5b600160008273ffffffffffffffffffffffffffffffffffffffff1673ffffffffffffffffffffffffffffffffffffffff16815260200190815260200160002060009054906101000a900460ff16156108c7576040517f08c379a00000000000000000000000000000000000000000000000000000000081526004016108be90611547565b60405180910390fd5b60018060008373ffffffffffffffffffffffffffffffffffffffff1673ffffffffffffffffffffffffffffffffffffffff16815260200190815260200160002060006101000a81548160ff021916908315150217905550600260008154809291906109319061141e565b919050555050565b600160003373ffffffffffffffffffffffffffffffffffffffff1673ffffffffffffffffffffffffffffffffffffffff16815260200190815260200160002060009054906101000a900460ff166109c5576040517f08c379a00000000000000000000000000000000000000000000000000000000081526004016109bc906112f7565b60405180910390fd5b60036040518060e0016040528085858080601f016020809104026020016040519081016040528093929190818152602001838380828437600081840152601f19601f820116905080830192505050505050508152602001836004811115610a2f57610a2e610f6d565b5b815260200160008152602001600081526020016000151581526020014281526020016201518042610a609190611567565b81525090806001815401808255809150506001900390600052602060002090600702016000909190919091506000820151816000019081610aa19190611776565b5060208201518160010160006101000a81548160ff02191690836004811115610acd57610acc610f6d565b5b0217905550604082015181600201556060820151816003015560808201518160040160006101000a81548160ff02191690831515021790555060a0820151816005015560c0820151816006015550506001600380549050610b2e9190611848565b7ff5dc0da9afa6d080780a49fd8c680f03d2ddf3c067cd6d0c85360c096644d2d384846201518042610b609190611567565b604051610b6f939291906118b8565b60405180910390a2505050565b806003805490508110610bc4576040517f08c379a0000000000000000000000000000000000000000000000000000000008152600401610bbb906111fc565b60405180910390fd5b600060038381548110610bda57610bd961121c565b5b906000526020600020906007020190508060040160009054906101000a900460ff1615610c3c576040517f08c379a0000000000000000000000000000000000000000000000000000000008152600401610c3390611936565b60405180910390fd5b8060060154421015610c83576040517f08c379a0000000000000000000000000000000000000000000000000000000008152600401610c7a906119a2565b60405180910390fd5b60055481600201541015610ccc576040517f08c379a0000000000000000000000000000000000000000000000000000000008152600401610cc390611a0e565b60405180910390fd5b60018160040160006101000a81548160ff021916908315150217905550827f712ae1383f79ac853f8d882153778e0260ef8f03b504e2866e0593e04d2b291f60405160405180910390a2505050565b600080fd5b600080fd5b600073ffffffffffffffffffffffffffffffffffffffff82169050919050565b6000610d5082610d25565b9050919050565b610d6081610d45565b8114610d6b57600080fd5b50565b600081359050610d7d81610d57565b92915050565b600060208284031215610d9957610d98610d1b565b5b6000610da784828501610d6e565b91505092915050565b60008115159050919050565b610dc581610db0565b82525050565b6000602082019050610de06000830184610dbc565b92915050565b6000819050919050565b610df981610de6565b82525050565b6000602082019050610e146000830184610df0565b92915050565b610e2381610de6565b8114610e2e57600080fd5b50565b600081359050610e4081610e1a565b92915050565b60008060408385031215610e5d57610e5c610d1b565b5b6000610e6b85828601610e31565b9250506020610e7c85828601610d6e565b9150509250929050565b610e8f81610d45565b82525050565b6000602082019050610eaa6000830184610e86565b92915050565b600060208284031215610ec657610ec5610d1b565b5b6000610ed484828501610e31565b91505092915050565b600081519050919050565b600082825260208201905092915050565b60005b83811015610f17578082015181840152602081019050610efc565b60008484015250505050565b6000601f19601f8301169050919050565b6000610f3f82610edd565b610f498185610ee8565b9350610f59818560208601610ef9565b610f6281610f23565b840191505092915050565b7f4e487b7100000000000000000000000000000000000000000000000000000000600052602160045260246000fd5b60058110610fad57610fac610f6d565b5b50565b6000819050610fbe82610f9c565b919050565b6000610fce82610fb0565b9050919050565b610fde81610fc3565b82525050565b600060e0820190508181036000830152610ffe818a610f34565b905061100d6020830189610fd5565b61101a6040830188610df0565b6110276060830187610df0565b6110346080830186610dbc565b61104160a0830185610df0565b61104e60c0830184610df0565b98975050505050505050565b61106381610db0565b811461106e57600080fd5b50565b6000813590506110808161105a565b92915050565b6000806040838503121561109d5761109c610d1b565b5b60006110ab85828601610e31565b92505060206110bc85828601611071565b9150509250929050565b600080fd5b600080fd5b600080fd5b60008083601f8401126110eb576110ea6110c6565b5b8235905067ffffffffffffffff811115611108576111076110cb565b5b602083019150836001820283011115611124576111236110d0565b5b9250929050565b6005811061113857600080fd5b50565b60008135905061114a8161112b565b92915050565b60008060006040848603121561116957611168610d1b565b5b600084013567ffffffffffffffff81111561118757611186610d20565b5b611193868287016110d5565b935093505060206111a68682870161113b565b9150509250925092565b7f496e76616c696420494400000000000000000000000000000000000000000000600082015250565b60006111e6600a83610ee8565b91506111f1826111b0565b602082019050919050565b60006020820190508181036000830152611215816111d9565b9050919050565b7f4e487b7100000000000000000000000000000000000000000000000000000000600052603260045260246000fd5b7f4e487b7100000000000000000000000000000000000000000000000000000000600052602260045260246000fd5b6000600282049050600182168061129257607f821691505b6020821081036112a5576112a461124b565b5b50919050565b7f4e6f74206d656d62657200000000000000000000000000000000000000000000600082015250565b60006112e1600a83610ee8565b91506112ec826112ab565b602082019050919050565b60006020820190508181036000830152611310816112d4565b9050919050565b7f566f74696e6720656e6465640000000000000000000000000000000000000000600082015250565b600061134d600c83610ee8565b915061135882611317565b602082019050919050565b6000602082019050818103600083015261137c81611340565b9050919050565b7f416c726561647920766f74656400000000000000000000000000000000000000600082015250565b60006113b9600d83610ee8565b91506113c482611383565b602082019050919050565b600060208201905081810360008301526113e8816113ac565b9050919050565b7f4e487b7100000000000000000000000000000000000000000000000000000000600052601160045260246000fd5b600061142982610de6565b91507fffffffffffffffffffffffffffffffffffffffffffffffffffffffffffffffff820361145b5761145a6113ef565b5b600182019050919050565b600060408201905061147b6000830185610e86565b6114886020830184610dbc565b9392505050565b7f4e6f74206f776e65720000000000000000000000000000000000000000000000600082015250565b60006114c5600983610ee8565b91506114d08261148f565b602082019050919050565b600060208201905081810360008301526114f4816114b8565b9050919050565b7f416c7265616479206d656d626572000000000000000000000000000000000000600082015250565b6000611531600e83610ee8565b915061153c826114fb565b602082019050919050565b6000602082019050818103600083015261156081611524565b9050919050565b600061157282610de6565b915061157d83610de6565b9250828201905080821115611595576115946113ef565b5b92915050565b7f4e487b7100000000000000000000000000000000000000000000000000000000600052604160045260246000fd5b60008190508160005260206000209050919050565b60006020601f8301049050919050565b600082821b905092915050565b60006008830261162c7fffffffffffffffffffffffffffffffffffffffffffffffffffffffffffffffff826115ef565b61163686836115ef565b95508019841693508086168417925050509392505050565b6000819050919050565b600061167361166e61166984610de6565b61164e565b610de6565b9050919050565b6000819050919050565b61168d83611658565b6116a16116998261167a565b8484546115fc565b825550505050565b600090565b6116b66116a9565b6116c1818484611684565b505050565b5b818110156116e5576116da6000826116ae565b6001810190506116c7565b5050565b601f82111561172a576116fb816115ca565b611704846115df565b81016020851015611713578190505b61172761171f856115df565b8301826116c6565b50505b505050565b600082821c905092915050565b600061174d6000198460080261172f565b1980831691505092915050565b6000611766838361173c565b9150826002028217905092915050565b61177f82610edd565b67ffffffffffffffff8111156117985761179761159b565b5b6117a2825461127a565b6117ad8282856116e9565b600060209050601f8311600181146117e057600084156117ce578287015190505b6117d8858261175a565b865550611840565b601f1984166117ee866115ca565b60005b82811015611816578489015182556001820191506020850194506020810190506117f1565b86831015611833578489015161182f601f89168261173c565b8355505b6001600288020188555050505b505050505050565b600061185382610de6565b915061185e83610de6565b9250828203905081811115611876576118756113ef565b5b92915050565b82818337600083830152505050565b60006118978385610ee8565b93506118a483858461187c565b6118ad83610f23565b840190509392505050565b600060408201905081810360008301526118d381858761188b565b90506118e26020830184610df0565b949350505050565b7f416c726561647920657865637574656400000000000000000000000000000000600082015250565b6000611920601083610ee8565b915061192b826118ea565b602082019050919050565b6000602082019050818103600083015261194f81611913565b9050919050565b7f566f74696e67206e6f7420656e64656400000000000000000000000000000000600082015250565b600061198c601083610ee8565b915061199782611956565b602082019050919050565b600060208201905081810360008301526119bb8161197f565b9050919050565b7f51756f72756d206e6f7420726561636865640000000000000000000000000000600082015250565b60006119f8601283610ee8565b9150611a03826119c2565b602082019050919050565b60006020820190508181036000830152611a27816119eb565b905091905056fea2646970667358221220e850952df74efcbff180452ea8d82993def926bab6f4a64bcbbcd9f98fdfd00b64736f6c634300081c0033",
  "linkReferences": {},
  "deployedLinkReferences": {}
}