{
  "_format": "hh-sol-artifact-1",
  "contractName": "DAO",
  "sourceName": "contracts/DAO.sol",
  "abi": [
    {
      "inputs": [
        {
          "internalType": "uint256",
          "name": "_quorum",
          "type": "uint256"
        }
      ],
      "stateMutability": "nonpayable",
      "type": "constructor"
    },
    {
      "anonymous": false,
      "inputs": [
        {
          "indexed": true,
          "internalType": "uint256",
          "name": "id",
          "type": "uint256"
        },
        {
          "indexed": false,
          "internalType": "string",
          "name": "description",
          "type": "string"
        },
        {
          "indexed": false,
          "internalType": "address",
          "name": "proposer",
          "type": "address"
        },
        {
          "indexed": false,
          "internalType": "uint256",
          "name": "deadline",
          "type": "uint256"
        }
      ],
      "name": "ProposalCreated",
      "type": "event"
    },
    {
      "anonymous": false,
      "inputs": [
        {
          "indexed": true,
          "internalType": "uint256",
          "name": "id",
          "type": "uint256"
        }
      ],
      "name": "ProposalExecuted",
      "type": "event"
    },
    {
      "anonymous": false,
      "inputs": [
        {
          "indexed": true,
          "internalType": "uint256",
          "name": "id",
          "type": "uint256"
        },
        {
          "indexed": false,
          "internalType": "address",
          "name": "voter",
          "type": "address"
        },
        {
          "indexed": false,
          "internalType": "bool",
          "name": "support",
          "type": "bool"
        }
      ],
      "name": "VoteCast",
      "type": "event"
    },
    {
      "inputs": [
        {
          "internalType": "address",
          "name": "_member",
          "type": "address"
        }
      ],
      "name": "addMember",
      "outputs": [],
      "stateMutability": "nonpayable",
      "type": "function"
    },
    {
      "inputs": [
        {
          "internalType": "string",
          "name": "_description",
          "type": "string"
        },
        {
          "internalType": "enum DAO.ProposalType",
          "name": "_type",
          "type": "uint8"
        }
      ],
      "name": "createProposal",
      "outputs": [],
      "stateMutability": "nonpayable",
      "type": "function"
    },
    {
      "inputs": [
        {
          "internalType": "uint256",
          "name": "id",
          "type": "uint256"
        }
      ],
      "name": "execute",
      "outputs": [],
      "stateMutability": "nonpayable",
      "type": "function"
    },
    {
      "inputs": [
        {
          "internalType": "uint256",
          "name": "id",
          "type": "uint256"
        }
      ],
      "name": "getProposal",
      "outputs": [
        {
          "internalType": "string",
          "name": "",
          "type": "string"
        },
        {
          "internalType": "enum DAO.ProposalType",
          "name": "",
          "type": "uint8"
        },
        {
          "internalType": "uint256",
          "name": "",
          "type": "uint256"
        },
        {
          "internalType": "uint256",
          "name": "",
          "type": "uint256"
        },
        {
          "internalType": "bool",
          "name": "",
          "type": "bool"
        },
        {
          "internalType": "uint256",
          "name": "",
          "type": "uint256"
        },
        {
          "internalType": "uint256",
          "name": "",
          "type": "uint256"
        },
        {
          "internalType": "address",
          "name": "",
          "type": "address"
        }
      ],
      "stateMutability": "view",
      "type": "function"
    },
    {
      "inputs": [],
      "name": "getProposalCount",
      "outputs": [
        {
          "internalType": "uint256",
          "name": "",
          "type": "uint256"
        }
      ],
      "stateMutability": "view",
      "type": "function"
    },
    {
      "inputs": [
        {
          "internalType": "uint256",
          "name": "",
          "type": "uint256"
        },
        {
          "internalType": "address",
          "name": "",
          "type": "address"
        }
      ],
      "name": "hasVoted",
      "outputs": [
        {
          "internalType": "bool",
          "name": "",
          "type": "bool"
        }
      ],
      "stateMutability": "view",
      "type": "function"
    },
    {
      "inputs": [
        {
          "internalType": "address",
          "name": "_addr",
          "type": "address"
        }
      ],
      "name": "isMember",
      "outputs": [
        {
          "internalType": "bool",
          "name": "",
          "type": "bool"
        }
      ],
      "stateMutability": "view",
      "type": "function"
    },
    {
      "inputs": [],
      "name": "memberCount",
      "outputs": [
        {
          "internalType": "uint256",
          "name": "",
          "type": "uint256"
        }
      ],
      "stateMutability": "view",
      "type": "function"
    },
    {
      "inputs": [
        {
          "internalType": "address",
          "name": "",
          "type": "address"
        }
      ],
      "name": "members",
      "outputs": [
        {
          "internalType": "bool",
          "name": "",
          "type": "bool"
        }
      ],
      "stateMutability": "view",
      "type": "function"
    },
    {
      "inputs": [],
      "name": "owner",
      "outputs": [
        {
          "internalType": "address",
          "name": "",
          "type": "address"
        }
      ],
      "stateMutability": "view",
      "type": "function"
    },
    {
      "inputs": [],
      "name": "quorum",
      "outputs": [
        {
          "internalType": "uint256",
          "name": "",
          "type": "uint256"
        }
      ],
      "stateMutability": "view",
      "type": "function"
    },
    {
      "inputs": [
        {
          "internalType": "uint256",
          "name": "id",
          "type": "uint256"
        },
        {
          "internalType": "bool",
          "name": "support",
          "type": "bool"
        }
      ],
      "name": "vote",
      "outputs": [],
      "stateMutability": "nonpayable",
      "type": "function"
    },
    {
      "inputs": [],
      "name": "votingDuration",
      "outputs": [
        {
          "internalType": "uint256",
          "name": "",
          "type": "uint256"
        }
      ],
      "stateMutability": "view",
      "type": "function"
    }
  ],
  "bytecode": "0x608060405234801561001057600080fd5b50604051611f85380380611f8583398181016040528101906100329190610121565b336000806101000a81548173ffffffffffffffffffffffffffffffffffffffff021916908373ffffffffffffffffffffffffffffffffffffffff16021790555060018060003373ffffffffffffffffffffffffffffffffffffffff1673ffffffffffffffffffffffffffffffffffffffff16815260200190815260200160002060006101000a81548160ff02191690831515021790555060016002819055508060058190555060786006819055505061014e565b600080fd5b6000819050919050565b6100fe816100eb565b811461010957600080fd5b50565b60008151905061011b816100f5565b92915050565b600060208284031215610137576101366100e6565b5b60006101458482850161010c565b91505092915050565b611e288061015d6000396000f3fe608060405234801561001057600080fd5b50600436106100cf5760003560e01c8063a230c5241161008c578063c9d27afe11610066578063c9d27afe14610231578063ca6d56dc1461024d578063d1c29a2914610269578063fe0d94c114610285576100cf565b8063a230c524146101ac578063c08cc02d146101dc578063c7f758a8146101fa576100cf565b806308ae4b0c146100d457806311aee38014610104578063132002fc146101225780631703a01814610140578063438596321461015e5780638da5cb5b1461018e575b600080fd5b6100ee60048036038101906100e991906110e8565b6102a1565b6040516100fb9190611130565b60405180910390f35b61010c6102c1565b6040516101199190611164565b60405180910390f35b61012a6102c7565b6040516101379190611164565b60405180910390f35b6101486102cd565b6040516101559190611164565b60405180910390f35b610178600480360381019061017391906111ab565b6102d3565b6040516101859190611130565b60405180910390f35b610196610302565b6040516101a391906111fa565b60405180910390f35b6101c660048036038101906101c191906110e8565b610326565b6040516101d39190611130565b60405180910390f35b6101e461037c565b6040516101f19190611164565b60405180910390f35b610214600480360381019061020f9190611215565b610389565b604051610228989796959493929190611349565b60405180910390f35b61024b600480360381019061024691906113fa565b61050e565b005b610267600480360381019061026291906110e8565b6107d5565b005b610283600480360381019061027e91906114c4565b610962565b005b61029f600480360381019061029a9190611215565b610c09565b005b60016020528060005260406000206000915054906101000a900460ff1681565b60025481565b60065481565b60055481565b60046020528160005260406000206020528060005260406000206000915091509054906101000a900460ff1681565b60008054906101000a900473ffffffffffffffffffffffffffffffffffffffff1681565b6000600160008373ffffffffffffffffffffffffffffffffffffffff1673ffffffffffffffffffffffffffffffffffffffff16815260200190815260200160002060009054906101000a900460ff169050919050565b6000600380549050905090565b606060008060008060008060008860038054905081106103de576040517f08c379a00000000000000000000000000000000000000000000000000000000081526004016103d590611570565b60405180910390fd5b600060038b815481106103f4576103f3611590565b5b90600052602060002090600802019050806000018160010160009054906101000a900460ff16826002015483600301548460040160009054906101000a900460ff16856005015486600601548760070160009054906101000a900473ffffffffffffffffffffffffffffffffffffffff16878054610471906115ee565b80601f016020809104026020016040519081016040528092919081815260200182805461049d906115ee565b80156104ea5780601f106104bf576101008083540402835291602001916104ea565b820191906000526020600020905b8154815290600101906020018083116104cd57829003601f168201915b50505050509750995099509950995099509950995099505050919395975091939597565b600160003373ffffffffffffffffffffffffffffffffffffffff1673ffffffffffffffffffffffffffffffffffffffff16815260200190815260200160002060009054906101000a900460ff1661059a576040517f08c379a00000000000000000000000000000000000000000000000000000000081526004016105919061166b565b60405180910390fd5b8160038054905081106105e2576040517f08c379a00000000000000000000000000000000000000000000000000000000081526004016105d990611570565b60405180910390fd5b6000600384815481106105f8576105f7611590565b5b906000526020600020906008020190508060060154421061064e576040517f08c379a0000000000000000000000000000000000000000000000000000000008152600401610645906116d7565b60405180910390fd5b6004600085815260200190815260200160002060003373ffffffffffffffffffffffffffffffffffffffff1673ffffffffffffffffffffffffffffffffffffffff16815260200190815260200160002060009054906101000a900460ff16156106ec576040517f08c379a00000000000000000000000000000000000000000000000000000000081526004016106e390611743565b60405180910390fd5b60016004600086815260200190815260200160002060003373ffffffffffffffffffffffffffffffffffffffff1673ffffffffffffffffffffffffffffffffffffffff16815260200190815260200160002060006101000a81548160ff021916908315150217905550821561077a5780600201600081548092919061077090611792565b9190505550610795565b80600301600081548092919061078f90611792565b91905055505b837fe71fcdac32df1877c1700e7bda2a03157e20993363a28fc35ac495cefc76e4d433856040516107c79291906117da565b60405180910390a250505050565b60008054906101000a900473ffffffffffffffffffffffffffffffffffffffff1673ffffffffffffffffffffffffffffffffffffffff163373ffffffffffffffffffffffffffffffffffffffff1614610863576040517f08c379a000000000000000000000000000000000000000000000000000000000815260040161085a9061184f565b60405180910390fd5b600160008273ffffffffffffffffffffffffffffffffffffffff1673ffffffffffffffffffffffffffffffffffffffff16815260200190815260200160002060009054906101000a900460ff16156108f0576040517f08c379a00000000000000000000000000000000000000000000000000000000081526004016108e7906118bb565b60405180910390fd5b60018060008373ffffffffffffffffffffffffffffffffffffffff1673ffffffffffffffffffffffffffffffffffffffff16815260200190815260200160002060006101000a81548160ff0219169083151502179055506002600081548092919061095a90611792565b919050555050565b600160003373ffffffffffffffffffffffffffffffffffffffff1673ffffffffffffffffffffffffffffffffffffffff16815260200190815260200160002060009054906101000a900460ff166109ee576040517f08c379a00000000000000000000000000000000000000000000000000000000081526004016109e59061166b565b60405180910390fd5b600360405180610100016040528085858080601f016020809104026020016040519081016040528093929190818152602001838380828437600081840152601f19601f820116905080830192505050505050508152602001836004811115610a5957610a586112d2565b5b8152602001600081526020016000815260200160001515815260200142815260200160065442610a8991906118db565b81526020013373ffffffffffffffffffffffffffffffffffffffff1681525090806001815401808255809150506001900390600052602060002090600802016000909190919091506000820151816000019081610ae69190611aea565b5060208201518160010160006101000a81548160ff02191690836004811115610b1257610b116112d2565b5b0217905550604082015181600201556060820151816003015560808201518160040160006101000a81548160ff02191690831515021790555060a0820151816005015560c0820151816006015560e08201518160070160006101000a81548173ffffffffffffffffffffffffffffffffffffffff021916908373ffffffffffffffffffffffffffffffffffffffff16021790555050506001600380549050610bba9190611bbc565b7f9cc3d9dd626042cdefb76484b91708c3207b637214b44f20111c893548d9c85f84843360065442610bec91906118db565b604051610bfc9493929190611c2c565b60405180910390a2505050565b806003805490508110610c51576040517f08c379a0000000000000000000000000000000000000000000000000000000008152600401610c4890611570565b60405180910390fd5b600060038381548110610c6757610c66611590565b5b906000526020600020906008020190508060040160009054906101000a900460ff1615610cc9576040517f08c379a0000000000000000000000000000000000000000000000000000000008152600401610cc090611cb8565b60405180910390fd5b8060060154421015610d10576040517f08c379a0000000000000000000000000000000000000000000000000000000008152600401610d0790611d24565b60405180910390fd5b60055481600201541015610d59576040517f08c379a0000000000000000000000000000000000000000000000000000000008152600401610d5090611d90565b60405180910390fd5b60018160040160006101000a81548160ff02191690831515021790555060026004811115610d8a57610d896112d2565b5b8160010160009054906101000a900460ff166004811115610dae57610dad6112d2565b5b03610e4957610e48816000018054610dc5906115ee565b80601f0160208091040260200160405190810160405280929190818152602001828054610df1906115ee565b8015610e3e5780601f10610e1357610100808354040283529160200191610e3e565b820191906000526020600020905b815481529060010190602001808311610e2157829003601f168201915b5050505050610e7b565b5b827f712ae1383f79ac853f8d882153778e0260ef8f03b504e2866e0593e04d2b291f60405160405180910390a2505050565b610eba816040518060400160405280600681526020017f71756f72756d0000000000000000000000000000000000000000000000000000815250610f60565b15610eed576000610eca82610f70565b9050600081118015610ede57506002548111155b15610eeb57806005819055505b505b610f2c816040518060400160405280600881526020017f6475726174696f6e000000000000000000000000000000000000000000000000815250610f60565b15610f5d576000610f3c82610f70565b90506000811115610f5b57603c81610f549190611db0565b6006819055505b505b50565b6000815183511015905092915050565b6000808290506000805b825181101561107557603060f81b838281518110610f9b57610f9a611590565b5b602001015160f81c60f81b7effffffffffffffffffffffffffffffffffffffffffffffffffffffffffffff1916101580156110195750603960f81b838281518110610fe957610fe8611590565b5b602001015160f81c60f81b7effffffffffffffffffffffffffffffffffffffffffffffffffffffffffffff191611155b1561106857603083828151811061103357611032611590565b5b602001015160f81c60f81b60f81c60ff1661104e9190611bbc565b600a8361105b9190611db0565b61106591906118db565b91505b8080600101915050610f7a565b508092505050919050565b600080fd5b600080fd5b600073ffffffffffffffffffffffffffffffffffffffff82169050919050565b60006110b58261108a565b9050919050565b6110c5816110aa565b81146110d057600080fd5b50565b6000813590506110e2816110bc565b92915050565b6000602082840312156110fe576110fd611080565b5b600061110c848285016110d3565b91505092915050565b60008115159050919050565b61112a81611115565b82525050565b60006020820190506111456000830184611121565b92915050565b6000819050919050565b61115e8161114b565b82525050565b60006020820190506111796000830184611155565b92915050565b6111888161114b565b811461119357600080fd5b50565b6000813590506111a58161117f565b92915050565b600080604083850312156111c2576111c1611080565b5b60006111d085828601611196565b92505060206111e1858286016110d3565b9150509250929050565b6111f4816110aa565b82525050565b600060208201905061120f60008301846111eb565b92915050565b60006020828403121561122b5761122a611080565b5b600061123984828501611196565b91505092915050565b600081519050919050565b600082825260208201905092915050565b60005b8381101561127c578082015181840152602081019050611261565b60008484015250505050565b6000601f19601f8301169050919050565b60006112a482611242565b6112ae818561124d565b93506112be81856020860161125e565b6112c781611288565b840191505092915050565b7f4e487b7100000000000000000000000000000000000000000000000000000000600052602160045260246000fd5b60058110611312576113116112d2565b5b50565b600081905061132382611301565b919050565b600061133382611315565b9050919050565b61134381611328565b82525050565b6000610100820190508181036000830152611364818b611299565b9050611373602083018a61133a565b6113806040830189611155565b61138d6060830188611155565b61139a6080830187611121565b6113a760a0830186611155565b6113b460c0830185611155565b6113c160e08301846111eb565b9998505050505050505050565b6113d781611115565b81146113e257600080fd5b50565b6000813590506113f4816113ce565b92915050565b6000806040838503121561141157611410611080565b5b600061141f85828601611196565b9250506020611430858286016113e5565b9150509250929050565b600080fd5b600080fd5b600080fd5b60008083601f84011261145f5761145e61143a565b5b8235905067ffffffffffffffff81111561147c5761147b61143f565b5b60208301915083600182028301111561149857611497611444565b5b9250929050565b600581106114ac57600080fd5b50565b6000813590506114be8161149f565b92915050565b6000806000604084860312156114dd576114dc611080565b5b600084013567ffffffffffffffff8111156114fb576114fa611085565b5b61150786828701611449565b9350935050602061151a868287016114af565b9150509250925092565b7f496e76616c696420494400000000000000000000000000000000000000000000600082015250565b600061155a600a8361124d565b915061156582611524565b602082019050919050565b600060208201905081810360008301526115898161154d565b9050919050565b7f4e487b7100000000000000000000000000000000000000000000000000000000600052603260045260246000fd5b7f4e487b7100000000000000000000000000000000000000000000000000000000600052602260045260246000fd5b6000600282049050600182168061160657607f821691505b602082108103611619576116186115bf565b5b50919050565b7f4e6f74206d656d62657200000000000000000000000000000000000000000000600082015250565b6000611655600a8361124d565b91506116608261161f565b602082019050919050565b6000602082019050818103600083015261168481611648565b9050919050565b7f566f74696e6720656e6465640000000000000000000000000000000000000000600082015250565b60006116c1600c8361124d565b91506116cc8261168b565b602082019050919050565b600060208201905081810360008301526116f0816116b4565b9050919050565b7f416c726561647920766f74656400000000000000000000000000000000000000600082015250565b600061172d600d8361124d565b9150611738826116f7565b602082019050919050565b6000602082019050818103600083015261175c81611720565b9050919050565b7f4e487b7100000000000000000000000000000000000000000000000000000000600052601160045260246000fd5b600061179d8261114b565b91507fffffffffffffffffffffffffffffffffffffffffffffffffffffffffffffffff82036117cf576117ce611763565b5b600182019050919050565b60006040820190506117ef60008301856111eb565b6117fc6020830184611121565b9392505050565b7f4e6f74206f776e65720000000000000000000000000000000000000000000000600082015250565b600061183960098361124d565b915061184482611803565b602082019050919050565b600060208201905081810360008301526118688161182c565b9050919050565b7f416c7265616479206d656d626572000000000000000000000000000000000000600082015250565b60006118a5600e8361124d565b91506118b08261186f565b602082019050919050565b600060208201905081810360008301526118d481611898565b9050919050565b60006118e68261114b565b91506118f18361114b565b925082820190508082111561190957611908611763565b5b92915050565b7f4e487b7100000000000000000000000000000000000000000000000000000000600052604160045260246000fd5b60008190508160005260206000209050919050565b60006020601f8301049050919050565b600082821b905092915050565b6000600883026119a07fffffffffffffffffffffffffffffffffffffffffffffffffffffffffffffffff82611963565b6119aa8683611963565b95508019841693508086168417925050509392505050565b6000819050919050565b60006119e76119e26119dd8461114b565b6119c2565b61114b565b9050919050565b6000819050919050565b611a01836119cc565b611a15611a0d826119ee565b848454611970565b825550505050565b600090565b611a2a611a1d565b611a358184846119f8565b505050565b5b81811015611a5957611a4e600082611a22565b600181019050611a3b565b5050565b601f821115611a9e57611a6f8161193e565b611a7884611953565b81016020851015611a87578190505b611a9b611a9385611953565b830182611a3a565b50505b505050565b600082821c905092915050565b6000611ac160001984600802611aa3565b1980831691505092915050565b6000611ada8383611ab0565b9150826002028217905092915050565b611af382611242565b67ffffffffffffffff811115611b0c57611b0b61190f565b5b611b1682546115ee565b611b21828285611a5d565b600060209050601f831160018114611b545760008415611b42578287015190505b611b4c8582611ace565b865550611bb4565b601f198416611b628661193e565b60005b82811015611b8a57848901518255600182019150602085019450602081019050611b65565b86831015611ba75784890151611ba3601f891682611ab0565b8355505b6001600288020188555050505b505050505050565b6000611bc78261114b565b9150611bd28361114b565b9250828203905081811115611bea57611be9611763565b5b92915050565b82818337600083830152505050565b6000611c0b838561124d565b9350611c18838584611bf0565b611c2183611288565b840190509392505050565b60006060820190508181036000830152611c47818688611bff565b9050611c5660208301856111eb565b611c636040830184611155565b95945050505050565b7f416c726561647920657865637574656400000000000000000000000000000000600082015250565b6000611ca260108361124d565b9150611cad82611c6c565b602082019050919050565b60006020820190508181036000830152611cd181611c95565b9050919050565b7f566f74696e67206e6f7420656e64656400000000000000000000000000000000600082015250565b6000611d0e60108361124d565b9150611d1982611cd8565b602082019050919050565b60006020820190508181036000830152611d3d81611d01565b9050919050565b7f51756f72756d206e6f7420726561636865640000000000000000000000000000600082015250565b6000611d7a60128361124d565b9150611d8582611d44565b602082019050919050565b60006020820190508181036000830152611da981611d6d565b9050919050565b6000611dbb8261114b565b9150611dc68361114b565b9250828202611dd48161114b565b91508282048414831517611deb57611dea611763565b5b509291505056fea26469706673582212207f17446bd4866caadcddd1958aadff3d9ea729f346b9b66aa4406687d914bb1464736f6c634300081c0033",
  "linkReferences": {},
  "deployedLinkReferences": {}
}